:020000040800F2
:10000000000400208D040008993400089934000889
:10001000993400089934000899340008993400088C
:10002000993400089934000899340008E958000808
:1000300099340008993400088D580008815A000846
:10004000993400089934000899340008993400085C
:10005000993400089934000899340008993400084C
:10006000993400089934000899340008993400083C
:10007000993400089934000899340008993400082C
:10008000993400089934000899340008993400081C
:10009000993400089934000899340008993400080C
:1000A00099340008AD0A00088D0A00089934000848
:1000B00099340008993400089934000899340008EC
:1000C00099340008993400089934000899340008DC
:1000D00099340008993400089934000899340008CC
:1000E00099340008993400089934000899340008BC
:1000F00099340008993400089934000899340008AC
:10010000993400089934000899340008993400089B
:10011000993400089934000899340008993400088B
:10012000993400089934000899340008993400087B
:10013000993400089934000899340008993400086B
:10014000993400089934000899340008235A0008AB
:10015000993400089934000899340008993400084B
:10016000993400089934000899340008993400083B
:100170000348044B834202D0034B03B11847704736
:10018000441800204418002000000000064B0749D6
:10019000C91A891048BF0131491003D0044B0BB173
:1001A00001481847704700BF441800204418002039
:1001B0000000000010B5064C237843B9FFF7D8FFC4
:1001C000044B13B10448AFF300800123237010BD2A
:1001D0005C170020000000002468000808B5054BEB
:1001E0001BB105490548AFF30080BDE80840FFF7A3
:1001F000CDBF00BF000000000004002024680008FC
:10020000A3F5803A704700BF174B002B08BF134B74
:100210009D46FFF7F5FF00218B460F461348144A11
:10022000121A03F070FB0E4B002B00D098470D4BB9
:10023000002B00D098470020002104000D000D483D
:10024000002802D00C48AFF3008003F0D5F820005E
:10025000290003F016FB03F0BDF800BF0000080002
:100260000000000000000000000400200004002046
:1002700004180020000000000000000008B5064936
:10028000012005F06FFD054B186000F03DF8BDE85A
:10029000084000F09FB800BF180400206804002048
:1002A000F8B5164E164D304603F00BF930B9642000
:1002B00004F068FDF7E7642004F064FD304603F0C5
:1002C00000F904460028F6D1284603F067F90D4FDF
:1002D00048B1284603F05FF9234622462146386894
:1002E00003F0C6FEE3E74FF0FF31386803F0E2FFAA
:1002F0000128DCD1284603F04BF9D8E7045F000859
:10030000345F0008680400201FB50B4BA022029345
:100310000A4B0B49019301230A480093002304F080
:1003200083FA30B95521084805B05DF804EB03F0B5
:10033000C1B805B05DF804FB6C040020C4040020C3
:10034000B85E0008A1020008C35E000810B58EB0B8
:1003500003AB01930C4B01224FF4FA6100930B485D
:10036000002305F0C5F8044604F0A4FB4FF0FF336A
:100370000246009301210023204605F025F9642060
:1003800004F000FDFBE700BF91030008D15E000808
:1003900010B50E4803F002F90D4C014650B10B4860
:1003A00003F0F9F8002320681A46BDE8104019460A
:1003B00003F05EBE206803F07DFF012804D1BDE894
:1003C0001040024803F0E4B810BD00BF1C5F0008F5
:1003D000680400201FB50B4BA02202930A4B0B4967
:1003E000019301230A480093002304F01DFA30B959
:1003F0005621084805B05DF804EB03F05BB805B082
:100400005DF804FB440700209C070020B85E00084C
:100410004D030008DE5E000808B5044803F04CF800
:10042000BDE80840024803F047B800BF045F000879
:10043000EC5E000808B5044803F0A7F8BDE80840E2
:10044000024803F0A2B800BF345F00081C5F000838
:1004500008B5034805F073FABDE8084002F0FCBF98
:100460000C640008014805F06ABA00BF0C6400087B
:100470000348044A0449121A921003F00EB800BF50
:1004800070010008700100080418002008B5154B21
:1004900083F30A8800F030F8FFF7EAFF124B1349A4
:1004A0008B4212D30020124B12498B4218D3FFF714
:1004B000ABFE186850F82240586840F822400132DC
:1004C00098688242F5D30C33EAE70022F8E71C680B
:1004D00044F8220001325C68A242F8D30833E4E712
:1004E0000022F8E7000000202C68000838680008A7
:1004F00038680008386800084FF48041124B134AEE
:1005000070B59A60D3F88820114D42F47002C3F898
:100510008820104A05F5005491664FF0FF3222669C
:100520000D4A62660222C3F8D020BFF34F8FBFF39B
:100530006F8F4FF44036002002F040FA0020E66052
:1005400002F00AFA2E6170BD00ED00E00000000824
:100550000080004400900050F7FF3700014B186006
:10056000704700BF08180020054B1860054B1B6F33
:1005700003F00703032B01D103F000BA704700BF5B
:10058000101800200080005030B5056887B0AB8897
:1005900004461E48ADF80C3005F0D1F900220121C7
:1005A00003A800F083F80DF10B0103A800F04AF94D
:1005B0009DF80B3083F001032B70AB79022B19D11E
:1005C0004FF0FF330022CDE904330094104B04A90F
:1005D00003A800F0FFF9049B009401330C4B0CD1ED
:1005E000042205A903A800F05FF918B16F2109489A
:1005F00002F060FF002007B030BD012205A903A86A
:1006000000F052F90028F5D07E21F0E70C640008D4
:10061000CF3400084C5F00082DE9F04104460C255A
:100620004FF00108124E0CB314F001000BD0002063
:1006300024F0010405FB00625768002FF3D0916895
:10064000C0B2B847EFE72246013020284FEA5202F5
:1006500001D0D307F8D508FA00F20F2824EA0204E3
:10066000E8D9103805FB0062B432E5E7BDE8F08157
:100670001C0A002008B50C4805F061F9192002F0A9
:1006800085F928B1192002F099F9192002F064F9CE
:100690001A2002F07BF928B11A2002F08FF91A20F3
:1006A00002F05AF9002008BD0C6400082DE9F04161
:1006B0000E469046044638B993211A4802F0FAFED5
:1006C00022252846BDE8F0810F290CD8037883B194
:1006D000012B03D0022B0CD0032B04D13F236278D3
:1006E000D340DB0708D497210E4802F0E3FE212512
:1006F000E7E740F2FF33F2E70B4BD3F810532DB18D
:100700009B21084802F0D6FE0225DAE705F00CF935
:10071000074642462046314601F0B4FD384605F012
:10072000FEF8CEE7B05F000800C0035038B50446BD
:1007300028B91348E42102F0BDFE222038BD037819
:1007400083B1012B03D0022B0CD0032B04D13F2308
:100750006278D340DB0708D40948E82102F0AAFEFA
:100760002120EBE740F2FF33F2E705F0DDF8054624
:10077000204603F0A3F9284605F0D1F80020DDE774
:10078000B05F000838B5044628B91448FC2102F0CF
:1007900091FE222038BD03788BB1012B03D0022BB0
:1007A0000DD0032B04D13F236278D340DB0709D45B
:1007B0000A484FF4807102F07DFE2120EAE740F202
:1007C000FF33F1E705F0B0F80546204601F07EFC66
:1007D000284605F0A4F80020DCE700BFB05F000861
:1007E00070B50D46044600B131B9154840F22D11DF
:1007F00002F060FE222070BD03788BB1012B03D084
:10080000022B0DD0032B04D13F236278D340DB07AA
:1008100009D40B4840F2311102F04CFE2120EAE7E6
:1008200040F2FF33F1E705F07FF80646204601F07D
:10083000A3FC2870304605F072F80020DBE700BF0B
:10084000B05F000870B50D46044600B131B91548D7
:100850004FF4A37102F02EFE222070BD03788BB1FD
:10086000012B03D0022B0DD0032B04D13F23627840
:10087000D340DB0709D40B484FF4A57102F01AFEF0
:100880002120EAE740F2FF33F1E705F04DF8064694
:10089000204601F045FC2870304605F040F8002065
:1008A000DBE700BFB05F00082DE9F0410D461646BA
:1008B0009846044600B139B92F484FF4E07102F070
:1008C000F9FD2220BDE8F081027872B1012A19D029
:1008D000022A0AD0032A15D0FF2A0CD04FF4E27165
:1008E000254802F0E7FD2120ECE740F2FF33627873
:1008F000D340DA07F2D5022E07D9042E05D04FF4E3
:10090000E471EDE73F236278F2E705F00DF8237814
:100910000746FF2B05D032462046296801F01AFD14
:1009200028602B68013309D12378FF2B06D1134BA4
:100930006078D3F8241402F0ADFE286029684B1CBF
:1009400014D00C230E4A03FB0122069BC2F804803C
:1009500093602378FF2B04D001230A4A8B40C2F80E
:100960002434384604F0DBFF0020ABE7384604F0BF
:10097000D6FF2D20A6E700BFB05F000800C00350DF
:100980001C0A002000D003500F2810B5044606D9D9
:100990000D4840F2F11102F08DFD212010BD04F050
:1009A000C3FF0123094AA340C2F82034C2F824340B
:1009B0000C22074B02FB04330024C3E9014404F07A
:1009C000AEFF2046EAE700BFB05F000800E003503A
:1009D0001C0A00202DE9F0410D4690461F460446B2
:1009E00000B139B926484FF40B7102F063FD2220A3
:1009F000BDE8F081017871B1012938D002290AD00F
:100A0000032934D0FF290CD01D4840F2312102F0D7
:100A100051FD2120ECE740F2FF336278D340DA0742
:100A2000F2D504F081FF23780646FF2B05D042461D
:100A30002046296801F07EFD28602A68531C19D0E1
:100A40000C23104903FB0211069BC1F8B870C1F8D2
:100A5000BC302378FF2B05D00123103293400A4A83
:100A6000C2F82434304604F05AFF0020C0E73F2388
:100A70006278D3E7304604F052FF2D20B8E700BF7C
:100A8000B05F00081C0A002000D0035008B501F038
:100A90009FFB054B00F0553020F05020C3F8200498
:100AA000BDE80840FFF7B8BD00E0035008B501F00D
:100AB0008FFB054B00F0AA3020F0A020C3F82004E3
:100AC000BDE80840FFF7A8BD00E0035013B5044699
:100AD0000A4804F034FFA2780421B2FA82F22378A3
:100AE00052098DF8043063780DEB01008DF8053064
:100AF000FFF7DCFD002002B010BD00BF0C64000851
:100B0000044BD3F88420D206FBD4D3F88400C0F37E
:100B1000811070470040005038B5104B0546D3F89F
:100B200000310C4603F00303022B0BD0032B0DD036
:100B3000012B0FD102F03CFF032305B1286004B163
:100B4000236038BD02F086FF0923F6E702F036FF86
:100B50000823F2E701230020EFE700BF00800050E8
:100B600038B5104B0546D3F840310C4603F003036B
:100B7000022B0BD0032B0DD0012B0FD104F0C0FEA4
:100B80000A2305B1286004B1236038BD02F062FF7A
:100B90000923F6E704F0B7FE0C23F2E70123002057
:100BA000EFE700BF0080005038B5104B0546D3F882
:100BB00060310C4603F00303022B0BD0032B0DD046
:100BC000012B0FD104F09CFE0A2305B1286004B16B
:100BD000236038BD02F03EFF0923F6E704F093FEE0
:100BE0000C23F2E701230020EFE700BF0080005054
:100BF00038B5104B0546D3F840320C4603F00303DA
:100C0000022B0BD0032B0DD0012B0FD104F078FE5B
:100C10000A2305B1286004B1236038BD02F01AFF31
:100C20000923F6E704F06FFE0C23F2E7012300200E
:100C3000EFE700BF0080005038B5124B0546D3F8EF
:100C400080300C4603F00303022B0BD0032B0DD096
:100C5000012B0FD102F072FE0E2305B1286004B102
:100C6000236038BD02F0AEFE0723F6E702F060FE17
:100C70000623F2E7044841F2142102F01BFC002392
:100C80001846EAE7008000500960000838B51A4BA2
:100C90000546D3F820010C4600F00700062821D8AD
:100CA000DFE800F028040C1410181C0002F040FECD
:100CB000052305B1286004B1236038BD02F078FE39
:100CC0000323F6E702F07EFE0723F2E702F06CFE54
:100CD0000223EEE702F02CFE0623EAE702F068FEAC
:100CE0000423E6E7054841F2912102F0E3FB0023EB
:100CF0001846DEE70123DCE70080005009600008A9
:100D000038B5194B0546D3F828310C4603F00703D4
:100D1000013B052B20D8DFE803F003131B0F0B1753
:100D200002F006FE052305B1286004B1236038BD3A
:100D300002F0FEFD0623F6E702F044FE0723F2E789
:100D400002F036FE0323EEE702F032FE0423EAE768
:100D500002F02AFE0223E6E7044841F2990102F07C
:100D6000A9FB00231846DEE7008000500960000858
:100D7000002337B50193194B0546D3F820320C46B2
:100D800003F00703042B1FD8DFE803F025030F143B
:100D90001900002101A8FFF7B3FF12230DB1019A3A
:100DA0002A6004B1236003B030BD02F00BFE0723BC
:100DB0000190F3E704F0A4FD0A230190EEE702F0AE
:100DC00049FE09230190E9E741F25601044802F087
:100DD00071FB0023E2E70123E0E700BF0080005041
:100DE00009600008F7B50027144B0197D3F880413C
:100DF000064604F00304022C0D4614D0032C0DD03B
:100E0000012C14D1394601A8FFF740FF10240EB180
:100E1000019B336005B12C6003B0F0BD02F0D2FD40
:100E200007240190F3E702F0BFFD0190EFE741F2E4
:100E3000E631034802F03EFB3C46E8E70080005004
:100E40000960000838B5164B0546D3F800020C4679
:100E500000F00700042819D8DFE800F020030B0F8A
:100E6000130004F04DFD0A2305B1286004B123608E
:100E700038BD02F0EFFD0923F6E704F044FD0C2332
:100E8000F2E702F07BFD0F23800AEDE7054841F20F
:100E9000A44102F00FFB00231846E5E70123E3E736
:100EA000008000500960000838B5164B0546D3F89D
:100EB00008020C4600F00700042819D8DFE800F00B
:100EC00020030B0F130004F01BFD0A2305B128605B
:100ED00004B1236038BD02F0BDFD0923F6E704F03C
:100EE00012FD0C23F2E702F049FD0F23800AEDE723
:100EF000054841F2DC4102F0DDFA00231846E5E73F
:100F00000123E3E70080005009600008002337B5A3
:100F10000193184B0546D3F860320C4603F00703E3
:100F2000013B032B1FD8DFE803F0020E1914002148
:100F300001A8FFF7ABFE10230DB1019A2A6004B19E
:100F4000236003B030BD002101A8FFF709FE112383
:100F5000F2E702F037FD07230190EDE702F024FDF0
:100F600002230190E8E741F2FD01034802F0A2FAF2
:100F70000023E1E70080005009600008002337B536
:100F80000193184B0546D3F894320C4603F007033F
:100F9000013B032B1FD8DFE803F0020E19140021D8
:100FA00001A8FFF773FE10230DB1019A2A6004B166
:100FB000236003B030BD002101A8FFF7D1FD11234C
:100FC000F2E702F0FFFC07230190EDE702F0ECFCF2
:100FD00002230190E8E741F23011034802F06AFA77
:100FE0000023E1E7008000500960000873B5002489
:100FF0000F4B0194D3F87032064603F00303012B24
:101000000D4607D0022B11D041F25B11094802F0C6
:1010100051FA04E0214601A8FFF7A2FD11240EB108
:10102000019B336005B12C6002B070BD1524F6E75A
:10103000008000500960000808B5334B98424FD03B
:1010400027D8324B984245D017D8314B98423ED0E2
:101050000AD838B12F4B984239D041F2BB312E48D3
:1010600002F028FA002034E02C4B98422FD02C4B71
:101070009842F2D12B4B586E2BE02B4B98422CD040
:1010800003F5371303F5D8639842E6D1254B986FE3
:101090001FE0264B98422FD00CD8254B984223D0E6
:1010A000244B984224D0244B9842D6D11D4BD3F8E0
:1010B00084000EE0214B984222D003F5740303F51F
:1010C00010539842C9D1174BD3F8980001E0154B43
:1010D000986D08BD134B186FFBE7124B586FF8E77C
:1010E000104BD3F88000F4E70E4BD3F88800F0E7FC
:1010F0000C4BD3F88C00ECE70A4BD3F89000E8E7F0
:10110000084BD3F89400E4E780BA8C01405DC60038
:1011100080841E0040420F000960000800093D0065
:10112000C0CF6A000080E00F0024F400007E560368
:1011300080D54302006CDC020048E8010090D00337
:10114000B0F5207F10B52ED009D8B0F5007F24D09F
:1011500003D868B1B0F5C07F0AD000241BE0B0F519
:10116000607FFAD1124BD3F88040C4F3011412E02F
:101170000F4B1C6F230B13F00E0FC4F303340AD074
:10118000072C08D00F2C06D0032C04D04FF422716A
:10119000084802F08FF9601C10BD054BD3F8904051
:1011A000C4F30464F7E7024B1C6FC4F38024F2E736
:1011B00000800050096000084FF4803238B5104BB1
:1011C00004469A6600200D46FFF7BAFF41F67132D9
:1011D0000C4B6043DC69DA635A6804F4803422F40F
:1011E00040125DB90849884294BF002001200005E3
:1011F00002435A600CB10022DA6338BD0349F2E7BA
:101200000090005000000350005A6202002D31018E
:10121000002130B5B0F5807F85B00446CDE90011DE
:1012200000F0D3803DD85E2833D85E2833D8DFE87D
:1012300000F04832323232323232323232323232EC
:10124000323232323232323232323232323232327E
:10125000323248AD48ADBDBDBDBDBDADC7516EDD7F
:1012600051ADADAD3232323232323232ADADAD810E
:10127000E7AD32323232323232323232323232BD93
:10128000484848E25151EC9066C2323232323298CC
:10129000480080286AD040F2A441604802F00AF970
:1012A00067E0B0F5D06F00F0A18035D8B0F5607F71
:1012B00077D01AD8B0F5007F5ED005D8B0F5C07FE2
:1012C000E9D102F05BFB53E0B0F5207F5ED0B0F5D2
:1012D000407FE0D102F052FB04464FF42070FFF74C
:1012E0002FFFB4FBF0F4640859E0B0F5B06F67D09D
:1012F0000AD8B0F5806F59D0B0F5A06FCBD10021DE
:101300006846FFF735FD34E0B0F5C06FC3D100216A
:101310006846FFF725FC2CE0B0F5106F6BD00ED8B7
:10132000B0F5086F76D0B6D8B0F5E06F68D0B0F5FC
:10133000F06FB0D100216846FFF736FC19E0B0F538
:10134000406F38D00AD8B0F5206F5ED0B0F5286F66
:10135000A1D100216846FFF749FE0AE0B0F5486FC9
:1013600099D100216846FFF709FE02E002F0E6FA93
:101370000090009805B030BD02F0E0FA0546204626
:10138000FFF7DEFEB5FBF0F50095F2E702F0F6FAA6
:1013900004464FF42070FFF7D3FEB4FBF0F4009442
:1013A000E7E701A8FFF748FC019DE8E70021684650
:1013B000FFF76CFCDDE700216846FFF7A1FCD8E7EA
:1013C00000216846FFF70EFDD3E74FF0E0230291BE
:1013D0001B695B0705D502F0D1FA0290029B0093CE
:1013E000C7E703A902A8FFF7BBFBF7E700216846A0
:1013F000FFF728FDBDE700216846FFF755FDB8E778
:1014000000216846FFF7F4FBB3E700216846FFF7C9
:101410007DFDAEE76846FFF77FFBAAE7096000089D
:1014200008B58020FFF7F4FE034B98429EBF4FF4AF
:101430008032024B1A6708BD005A620200A00050B9
:101440001FB503460020B3F5807F019000F0C580F2
:1014500063D85D2B54D84C2B06D82D2B46D8232B84
:101460002AD840F28951A7E04D3B102BF9D801A2B0
:1014700052F823F0D1150008631400086314000823
:10148000631400087B150008631400086314000847
:101490002B160008991500083F15000821160008B2
:1014A0006314000863140008631400086314000840
:1014B0006314000835160008243B092BD1D801A27B
:1014C00052F823F0D1150008D1150008D1150008F5
:1014D000D1150008D115000863140008C1150008D3
:1014E000631400085B150008071600083D2B00F088
:1014F00085803E2BB5D1002001A9FFF779FB63E081
:10150000802BAED14E4B1B6F03F00703013B032B27
:1015100050D8DFE803F04D46494BB3F5F06F6DD07E
:1015200020D8B3F5B06F4BD00ED8B3F5607F73D031
:1015300097D3B3F5806F4BD0B3F5A06F91D1002056
:1015400001A9FFF715FC3FE0B3F5D06F5BD0B3F511
:10155000E06FD0D0B3F5C06F83D1002001A9FFF7B1
:10156000FFFA31E0B3F5206F5FD00BD8B3F5086F09
:101570004ED0B3F5106F7FF474AF002001A9FFF7D0
:1015800093FC21E0B3F5406F4AD0B3F5486F51D0DA
:10159000B3F5286F7FF465AF002001A9FFF726FDA2
:1015A00012E0052301930FE00323FBE70823F9E78B
:1015B0000223F7E740F2D641224801F07BFF03E027
:1015C000002001A9FFF70EFC019805B05DF804FBAF
:1015D000002001A9FFF75AFBF6E74FF0E023029045
:1015E0001B695B0705D502F0C9F90D230393039B23
:1015F000D8E703A902A8FFF7B3FAF8E7002001A98A
:10160000FFF7D2FAE0E7002001A9FFF71BFCDBE7B8
:1016100001A9FFF781FAD7E701A9FFF70DFBD3E78F
:10162000002001A9FFF76CFBCEE7002001A9FFF71E
:101630006DFCC9E7002001A9FFF7A0FCC4E700BFCB
:1016400000800050096000084FF48032074B0849C1
:10165000586E03F580535A664B6A23F001034B62C0
:10166000C3035CBF034B5A66704700BF0080005045
:1016700000C0075000A0005038B5036804460F2B87
:1016800004D940F68A317C4801F014FF63680F2BBF
:1016900004D940F68D31784801F00CFFA3680F2B78
:1016A00004D94FF43961744801F004FF237B0F2BF8
:1016B00004D940F69331704801F0FCFE637B0F2B98
:1016C00004D940F696316C4801F0F4FEA37B3F2B21
:1016D00004D940F69931684801F0ECFEE37B3F2BDA
:1016E00004D940F69C31644801F0E4FE2369032BE1
:1016F00004D940F69F31604801F0DCFE6369032B9A
:1017000004D940F6A2315C4801F0D4FEE369032B12
:1017100004D940F6A531584801F0CCFE8020FFF7EF
:101720008FFE032800F083804FF48012534B4FF05C
:10173000A0615A6645F60E02514BC3F88020514A0B
:1017400091624FF4803102F5805291629A6DD2031A
:10175000FCD4996D11F08041FBD1D4E9000212054F
:1017600042EA0062E07B0243207B42EA0042607B67
:1017700042EA0032A07B42EA80121A619869D4E9F9
:101780000452120642EA856200F000400243A07E45
:10179000E57E0243207E42EA0042607E42EA002269
:1017A0009A611A6AE06922F00F0242EA8502364D18
:1017B00000283DD11A6294F82420996A94F82000F8
:1017C000D200294042EA40120A4394F8211042EA2A
:1017D000011242F480329A622C49294A936D31EA0F
:1017E0000303FBD14FF08071264881621369A5681D
:1017F00023F4700343EA055313614FF00043836100
:1018000094F822300BB9224B996294F823303BB9FB
:101810004FF480321E4B9A62194A936D5B00FCD4E0
:1018200094F825301BB1164B1A4AC3F8802038BDF6
:10183000024342F0080202281A6208D119614FF4EB
:101840000852996114484FF47F4101F0F0FE0C49B1
:1018500094F822308A6A94F820001B062A4043EA52
:101860004013134394F8242043EAC20394F823203E
:1018700043EA02438B62D3E70960000800900050FE
:101880000040005A0050005AC7FFFEFE030001004E
:101890000060005AF1A7FFFF3440005A014B93F952
:1018A0000000704736180020436810B5072B044627
:1018B00004D940F6E6512A4801F0FCFDA368032B49
:1018C00004D940F6E851264801F0F4FD2378032BB3
:1018D00004D940F6EA51224801F0ECFD94F90130B8
:1018E000002B04DA40F6EC511D4801F0E3FD4FF403
:1018F00000011C4A637851664FF4D151022002F571
:10190000B832516218494F2B48604FF0010028BF90
:101910004F2301F5805148601169C903FCD4217837
:1019200043EA01235361D4E901131B0143EA012374
:10193000617B0B43217B43EA41039360E37BA17B03
:101940001B0143EA4113617C0B43217C43EA4103C1
:101950005360A37C13B16FF4D153536210BD00BF29
:10196000096000080090005000100250014B1880E0
:10197000704700BF2E180020014B1880704700BF31
:101980002C1800204FF4800208B5184B5A66022329
:10199000174A5360936813F48033FBD1012822D196
:1019A00002F006F8134B984215D003F5122303F505
:1019B000F863984213D0104B00EB8002400AB3FB4F
:1019C000F0F3520A0A49CA620B6301234B620022F8
:1019D000074B5A6008BD45F67A13084AF2E745F608
:1019E0001A03074AEEE75362F1E700BF0090005088
:1019F0000040025000F0490264666666D8B80500EF
:101A0000BBCF0500B0F5207F38B577D00ED8B0F544
:101A1000007F61D003D890B3B0F5C07F2FD04FF4D2
:101A20004671BDE838403D4801F044BDB0F5607FE7
:101A3000F5D13B4A4C1ED2F8FC5015F080751EBF04
:101A4000D2F8FC3023F08073C2F8FC30032C04D9A8
:101A500040F2F721314801F02DFD324AD2F88030B2
:101A600023F0300343EA0413C2F8803035B12C4A26
:101A7000D2F8FC3043F08073C2F8FC3038BD4C1E05
:101A8000012C0AD9102903D8274BCB40DB0704D4FB
:101A900040F2CB21214801F00DFD01F0D7FD01F00E
:101AA000E3FD4FF48031214B1E4A1967136F23F475
:101AB000704343EA0433136701F060FF0446FFF705
:101AC0001FF8C0F10201204601F0C8FD00F048F8FF
:101AD000BDE83840FFF7A4BC4C1E1F2C04D94FF4BE
:101AE00043710E4801F0E6FC0E4AD2F8903023F024
:101AF000F85343EA0463C2F89030BFE74C1E012C50
:101B000004D940F21231054801F0D4FC054A136FA4
:101B100023F4806343EA84231367AFE70960000876
:101B200000ED00E000800050100101000090005026
:101B300008B50121022000F099F94FF42070FFF759
:101B4000FFFA054B187001F081FD01F08DFD4FF497
:101B50008032024B1A6708BD5D17002000900050CC
:101B600008B54FF4C070FFF753FBBDE808400449C7
:101B7000884294BF012102214FF42070FFF742BF39
:101B800080F0FA0238B5044601F0F8FE0546FEF78B
:101B9000B7FFC0F10201284601F060FD01210020DD
:101BA00000F0B8F92CB1FFF7DBFFBDE83840FFF7D4
:101BB00037BC034B4FF420701978FFF723FFF4E78D
:101BC0005D1700202DE9F0410546FFF735FA431E69
:101BD0000333044604D940F6E2113B4801F06AFCA5
:101BE0004FF4C022394B5A6603F598335A68012ADC
:101BF00004D137494A605A689207FCD48020FFF725
:101C00001FFC052807D101F021FD01F02DFD4FF447
:101C100080322E4B1A672F4B24F040749D4239D0EE
:101C20002D4B9D4239D001F083FE8542064603D9F3
:101C30000121284600F06EF9284FFB6813F0060FCB
:101C4000FBD1D7F80880BC60BB68634013F4F81F71
:101C500026D12846FEF782FC8020FFF7F1FB0528FD
:101C600014D101F08BFEA842044604D940F63B2172
:101C7000154801F01FFCFEF743FFC0F102012046AA
:101C800001F0ECFCFFF76CFFFFF7CAFBAE4213D28A
:101C9000BDE8F08144F00074C5E744F08074C2E709
:101CA00040F62A21084801F005FC8020C7F808808A
:101CB000FFF7C6FB052805D0BDE8F0410121002053
:101CC00000F028B93546CCE70960000800900050C4
:101CD00000E0015040420F0080841E0000000150CF
:101CE0004E4B70B59842054673D041D8A3F5B70363
:101CF000A3F55863984265D033D8494B494E984272
:101D000051D017D8002877D041F2DE11464801F0B3
:101D1000D1FB40F68671444801F0CCFB4FF4002221
:101D2000404B5A663E4B9D4276D000243F4A954236
:101D300036D05DE03D4B984227D03D4B9842E3D1F1
:101D40003C4BD3F8A040621E033224F040744CD9BF
:101D500040F68671344801F0ADFB4FF40023736602
:101D6000E4E7354B9842CFD1324BD3F8BC402CE05E
:101D7000324B984231D0324B984232D0314B98425C
:101D8000C2D12C4BD3F8C8401FE02A4BD3F8A04057
:101D9000621E033224F04074DAD84FF400237366D5
:101DA00044F0807424E0234BD3F8A040621E033239
:101DB00024F040742AD84FF400237366234643F07E
:101DC000007415E01B4BD3F8B840621E154E033269
:101DD000BBE7184BD3F8C040F7E7164BD3F8CC401D
:101DE000F3E7144BD3F8D040EFE74FF400237366CA
:101DF0004FF0B442946070BD40F686710A4801F01D
:101E000059FB4FF400232C467366F1E740F68671C8
:101E1000054801F04FFBCEE70023D0E7C0EA2101DF
:101E200040420F00009000500960000880841E00AE
:101E300000093D000080E00F0024F4000048E801A4
:101E4000005A620280BA8C01024A536B0342FCD1F1
:101E5000704700BF00400950034A0179D36E23F058
:101E600030030B43D366704700400050F8B504467A
:101E7000244BD3F88420D006FBD4D3F88430C3F3AA
:101E800081139C423CD001F059FD012C05460BD139
:101E90001D4B984204D940F29B711C4801F00AFB8B
:101EA0000121284601F0DAFB03F035FD4FF0007206
:101EB000174B07465A66204601F0DBFB4FF4806360
:101EC000104E621E93403367736E9A0103D4D6F8A6
:101ED00084309B060AD5384603F018FD022C0FD13A
:101EE0002846BDE8F840002101F0B8BBD6F88430A0
:101EF0009906E9D540F2B371044801F0DBFAE3E753
:101F0000F8BD00BF00400050005A62025B6000084C
:101F10000060005010B50C4608B901F00FFD074BEA
:101F200021461B783BB1064B984204D80120BDE8FE
:101F30001040FFF79BBF0220F9E700BF5E170020AB
:101F4000005A62024FF0004238B5244B244C5A66C6
:101F50004AF6CD33656C014605F00105236428BBC4
:101F60000120FFF771FF6368DB0715D51D4B586033
:101F700008461D4B226BD2070CD4984208D1072487
:101F800015B1174B194A1A6401F074FB204638BD8D
:101F90000130EFE79842F2D00024F1E70132236BE1
:101FA00013F0080305D08A42F8D1E8E700220E4971
:101FB000F5E78A42E3D020210A4A91620121A2F585
:101FC000805251600649084A886A800603D49342C9
:101FD000D5D00133F8E79342DDE700BF0090005011
:101FE000004009500060095040420F003254FFFF8A
:101FF0004FF0004238B5164B01465A664AF6CD33CB
:10200000144C154A656C236443780B205B0043F045
:102010000103D363FFF718FF63688A7823F4F8732A
:1020200043EA02136360CA784B7943EA0223A36050
:102030000A798B7943EA022323610878FFF782FF4C
:10204000EB0744BF054B236401F014FB012038BDAE
:102050000090005000400950004000503254FFFFF3
:102060000F2870B5044605D940F67461124801F096
:1020700021FA0F244FF00042104B11495D6E03F519
:1020800080535A664AF6CD334E6C80200B64FFF7BE
:10209000DBFE0B6A23F00F0323430B62F30744BFFD
:1020A000084B0B64002DA2BF4FF00042064B5A664E
:1020B00001F0E0FA70BD00BF5B60000800800050D6
:1020C000004009503254FFFF00A0005010B50446F4
:1020D00020B940F23A21104801F0ECF92378C3B15D
:1020E000012B03D0022B14D0032B04D13F236278A1
:1020F000D340DB0704D440F23D21074801F0DAF970
:102100000122637821789A4030235943034B5A5077
:1021100010BD40F2FF33EAE7AD60000840E0035035
:1021200010B5044620B940F25A21124801F0C2F914
:102130002378E3B1012B03D0022B18D0032B04D159
:102140003F236278D340DB0704D440F25D21094885
:1021500001F0B0F930222378534303F1A04303F593
:102160007033586C6378D84000F0010010BD40F225
:10217000FF33E6E7AD60000810B5044620B940F231
:102180006E21124801F096F92378E3B1012B03D0B8
:10219000022B18D0032B04D13F236278D340DB07F6
:1021A00004D440F27121094801F084F930222378E7
:1021B000534303F1A04303F57033186C6378D840A0
:1021C00000F0010010BD40F2FF33E6E7AD6000080B
:1021D000034BD3F82424D3F820041040704700BFE9
:1021E00000C0035010B5044620B94FF449711C4893
:1021F00001F060F923782BB96078053818BF4FF0EB
:10220000FF3010BD012B08D16378012B1CD0032BAC
:1022100014BF4FF0FF300420F3E7022B09D163789D
:10222000A3B1052B14D0072B14BF4FF0FF300820AB
:10223000E7E7032B0ED16378022B0ED0052B14BFDA
:102240004FF0FF300A20DCE70320DAE70620D8E76A
:102250000720D6E74FF0FF30D3E70920D1E700BFD2
:10226000AD600008064BDA6E02F03002202A06D07C
:10227000DA6E22F0300208B142F01002DA667047DE
:10228000004000502DE9F041037804460D46164603
:1022900013B3012B03D0022B1ED0032B04D13F23F9
:1022A0006278D340DB0703D45D21274801F002F9AF
:1022B000264BD3F810331BB16021234801F0FAF804
:1022C0000F2D0CD8DFE805F037323232323232329D
:1022D000323232323232323240F2FF33E0E7B4216E
:1022E000194801F0E7F84FF00008204606B301F066
:1022F000E5FB0F2167782378072F03EB430388BFA3
:10230000083F4FEA0313124895BFBF00BF000433D4
:102310000C3308FA07F2B940184401F0ACF985B95A
:10232000204656B1BDE8F04101F0C8BBA846DCE745
:10233000FFF7CCFEDDE7A846DBE7BDE8F041FFF79D
:10234000C5BEBDE8F08100BF0A61000800C00350AF
:1023500030C003502DE9F047037806460C46154679
:10236000002B50D0012B03D0022B4CD0032B04D1D7
:102370003F237278D340DA0704D44FF49C714A4863
:1023800001F098F8022D06D9042D04D040F239113D
:10239000454801F08FF8454FD7F8103323B14FF47B
:1023A0009D71414801F086F8002C2FDB7378634063
:1023B000032B04D94FF49F713B4801F07BF80127B0
:1023C000072C05F005094FF00308327805F00605E3
:1023D00007FA04F726DC4FEA840A08FA0AF84146AD
:1023E000334802FA0AF201F046F97278414602F0E7
:1023F0000302304802FA0AF201F03DF9B9F1000F88
:1024000037D12D4B36E040F2FF33B2E7631C06D1E3
:10241000D7F82414707801F03DF9041ECFDA204675
:10242000BDE8F087A4F1080A4FEA8A0A08FA0AF818
:102430004146224802FA0AF201F01DF9727841463B
:1024400002F003021E4802FA0AF201F014F9B9F18F
:10245000000F14D01F2C0CDD74211A4801F02AF84B
:10246000194BC3F8107495B97421164801F022F87D
:1024700003E0154BC3F810746DB90F4B0CE01F2C23
:10248000BFDD74210F4801F015F80B4BE9E774210B
:102490000C4801F00FF80C4BC3F814740123064AE2
:1024A000A340C2F82034BAE70A61000800C0035014
:1024B00000C4035008C4035000E0035004C4035098
:1024C0000CC403506661000800D0035070B5154E6F
:1024D000054630420C4604D040F28911124800F003
:1024E000E9FF344204D04FF4C5710F4800F0E2FF19
:1024F0000E4B2C40D3F83024012022EA0502C3F809
:102500003024D3F830241443C3F83044D3F82C24B7
:102510002A43C3F82C24FFF7A5FE054BC3F820542B
:1025200070BD00BFFFFF00F00A61000800C003504B
:1025300000E00350F8B5037805460F46164613B37E
:10254000012B03D0022B1ED0032B04D13F236A782A
:10255000D340D80704D440F29B11174800F0AAFFDB
:10256000164BD3F8103323B14FF4CE71124800F05C
:10257000A1FF2846FFF736FE791C044606D1421C0F
:1025800008D12046F8BD40F2FF33E0E7431CF8D005
:10259000B8420ED12846032186F00102FFF772FEF1
:1025A000012004F1100306FA03F19840FFF78EFFB3
:1025B000E7E74FF0FF34E4E70A61000800C003508A
:1025C000054B9A689107FCD45A689207F9D4DA69E6
:1025D000002AF6D1704700BF00800A5010B5074CA2
:1025E0006368DB0704D44FF49F71054800F062FF75
:1025F00001F0B8FA0223236110BD00BF00800A5029
:10260000C261000808B5FFF7DBFF0122024B03F5AA
:1026100080514A601A6108BD00800A50044B10B511
:102620005C68012C03D1FFF7D9FF024B5C6010BD41
:1026300000800A5000A00A5038B5074DFFF7C0FFD0
:102640006B680446012B03D1FFF7E8FFFFF7B8FFE3
:102650002378EB6038BD00BF00800A5038B50546CE
:102660000C4601F089FABDB96268237812B112787C
:1026700043EAC203627843EA4203A26812B11278C5
:1026800043EA8213E27843EA8203226912B11278A4
:1026900043EA4223014A936438BD00BF00800A50D8
:1026A00030B58D488BB003F04AF920B14FF44E712C
:1026B0008A4800F0FFFE6C46894D0FCD0FC42B6891
:1026C000884A2360FF238DF80130D2F84C3113F48F
:1026D000802340F0F580D2F850218DF801309DF82C
:1026E00001306C46FF2B08BF252368467E4D8DF8D0
:1026F0000130FFF7D9F83220FFF738F90FCD0FC4BA
:102700000FCD0FC495E8030084E80300754BD3F8A0
:102710004C21120340F1B880A3F5FE431C88B4F5A8
:10272000807F28BF64248DF81940FFF7B7F8044470
:1027300084F308046D488DF81840FDF715FF6846CE
:10274000FEF79AFF3220FFF717F96948FFF73AFAC8
:102750006848FFF7C5FA684803F0F1F820B140F285
:10276000CB115E4800F0A6FE644C0020FFF70AF98A
:10277000FFF7DEF9236F002023F0070343F0030384
:102780002367FFF7FFF9236F5D4923F47443236741
:102790005C4BD3F8FC2012F0807279D1D4F88030F1
:1027A00023F0030343F00103C4F88030C1F8802014
:1027B000524CD4F8203123F0070343F00203C4F84D
:1027C0002031D4F8283123F0070343F00203C4F882
:1027D0002831D4F8803123F0030343F00103C4F817
:1027E0008031D4F8403123F0030343F00203C4F8EE
:1027F0004031D4F8603123F0030343F00203C4F8FE
:102800006031D4F8403223F0030343F00203C4F8EC
:102810004032D4F8003223F0070343F00203C4F837
:102820000032D4F8083223F0070343F00203C4F85F
:102830000832D4F8703223F0030343F00103C4F8E4
:102840007032D4F8203223F0070343F00103C4F8B8
:102850002032FEF7F9FE4FF0E0220020136943F02A
:1028600004031361D4F8603223F0070343F001033B
:10287000C4F86032D4F8943223F0070343F0010324
:10288000C4F894320BB030BDD3F85041E4B24AE7FB
:10289000D3F8FC2022F08072C3F8FC20D4F880200A
:1028A00022F0030242F00102C4F880200022C1F8A5
:1028B0008020D3F8FC2042F08072C3F8FC2077E738
:1028C0004FF07E6393F89C2093F99C30002BFFF629
:1028D00006AF8DF8012002E7046400084563000894
:1028E000C06300080080E00FD4630008C0175302E3
:1028F00000B4C404C0EA210108640008008000504C
:102900000090005000ED00E007B5094B18689A8868
:102910009B7900906846ADF804208DF80630FFF7EB
:1029200067FB0C20FFF79CFB002003B05DF804FB65
:10293000FC63000813B50024064A6846536F43F051
:102940000103536700948DF80440FFF785FA204691
:1029500002B010BD004000504C2810B5044608D805
:1029600001236109074A04F01F04A34042F8213003
:1029700010BD4FF49871044800F09CFD002CF7DB6B
:10298000EEE700BF00E100E01C6400084B2810B532
:10299000044604D940F23B11064800F08BFD064B7B
:1029A000621153F8220004F01F04E040C04300F01D
:1029B000010010BD1C64000800E100E0002808DBF5
:1029C00001224309034900F01F008240603341F8AF
:1029D0002320704700E100E038B500F110035C2BC4
:1029E00004460D4604D94FF4EF710E4800F062FD25
:1029F0000F2D04D940F2DF110A4800F05BFD60B2F0
:102A00000028ACBF00F16040074B4FEA0515EDB25E
:102A1000ABBF00F5614000F00F0080F800531D547B
:102A200038BD00BF1C64000814ED00E010B502F0D2
:102A30007BFF0A4B1A786AB901226FF004041A70FE
:102A400002F06DFF204605210134FFF7C5FF4C2C35
:102A5000F8D110BDBDE8104002F061BF5F17002043
:102A600007B5684600F00AFADDE900010022034BD1
:102A700003B05DF804EB00F037BA00BF840B002010
:102A80002DE9F04F9B46531C05460E46174687B06E
:102A900035D170B308244FF00008784BCDF814807E
:102AA00083F80080109B002B00F0DF80C3F80080CB
:102AB000002E00F0DC806B68B34240F2D88002F058
:102AC00033FF073605AB26F007063A46CDE900830B
:102AD00082465B463146284600F052FE059F8146FD
:102AE00007B1F8B9504602F01AFF192007B0BDE847
:102AF000F08F40F2A721624800F0DCFCCAE7531EC9
:102B0000B3F5007F01D21A4204D040F2A2215C4802
:102B100000F0D0FC25B940F2A721594800F0CAFCCA
:102B20003C46B8E7B7F8028029694FEAC802C0EB13
:102B3000C8080139B8F1270F29617BD9BBF1000F13
:102B400051D1864206F1080848D022463946284627
:102B500000F0C0FD04460590059B9844404600F0F7
:102B60000BFE059906F10F004A88C308A2EBD002BC
:102B7000A8F80220CA88A8F80430002A30D0D31A56
:102B80009BB201EBC202A8F8063093808B88F6084E
:102B9000A380B8F804303A46E38041460023284633
:102BA000668000F038FEAB680833AB60237843F0F2
:102BB000010323702B6901332B616288AB68504697
:102BC00003EBC203EA68AB60934288BFEB6002F09C
:102BD000A6FE109B083400201C6087E73C46BBE73C
:102BE000A8F80620D2E707EB08042046039200F07D
:102BF000C3FD09F10701C9080598618008F10701C3
:102C0000C908A180C18899B1C900039ACE1DB21A22
:102C100002EB0903C3F3CF030144E3808B80A38855
:102C200008F1FF384FEAD808A0F80280C380BAE75D
:102C3000E180F4E7BBF1010F1BD107F10803B3FBFF
:102C4000F4F204FB1233B3B122463946284600F0B1
:102C500041FD044623783A4643F0010323702146A0
:102C60000123284600F0D7FDA7E722203EE72120D8
:102C70003CE78642E8D13C46ECE700BF371800202D
:102C80009864000807B5009313460A4601460348B6
:102C9000FFF7F6FE03B05DF804FB00BF840B0020D5
:102CA0002DE9F74F0C46054620B940F285317248B0
:102CB00000F000FC002C00F0DC80D5E9056802F093
:102CC00033FE14F8087C34F806CCFB07009002D5DC
:102CD000BCF1000F06D1009802F021FE012003B0E4
:102CE000BDE8F08FAB68D5F8109034F804ECA3EB96
:102CF000CC0B09F10103A4F108010CF10102C5F8A4
:102D000008B02B61BEF1000F39D0A1EBCE03D888FB
:102D1000B3F802A00190187807F00207C00723D487
:102D20001FBB0198A0EB0A07012F28D10CF102026A
:102D3000ABF108075244C5F81090AF6034F802ECCC
:102D4000BEF1000F1DD114F8081C24F806EC6EF338
:102D5000000104F8081C013A5A801A786EF3000248
:102D60001A700022DA8040E04FB114F8087C7244F7
:102D70006FF3410704F8087C00279F80DEE70B46CD
:102D8000DCE701EBCE0AD5E9007007EB0009CA4584
:102D90000ED314F8081C013A6FF3000104F8081C64
:102DA000002124F8061C5A801A7861F30002D7E744
:102DB00011F83E10574611F001012FD014F8081CED
:102DC000013A6FF3000104F8081C002192B224F8C4
:102DD000061C5A801A7861F300021A70C3F10702C8
:102DE0003A44C2F3CF02DA80BA80002E3FD0B34219
:102DF0003DD37288002A08BF1E46B8F1000F06D0E6
:102E0000434504D8B8F80220002A18BF434600986A
:102E1000C5E9056302F083FD002060E7AEEB0C0E10
:102E2000BEF1010FCAD1BAF802C0AAF80210944448
:102E3000BAF80620CAB10AEBC20700212A69013A92
:102E40002A61AA68083AAA6014F8082C24F8061C1B
:102E50006FF3000204F8082C1A78A3F802C061F39B
:102E600000021A70002FB9D17BE71746E5E71E462E
:102E7000C3E7222033E700BF986400080249034AF1
:102E80000160521A42607047481800200000042078
:102E900038B503690D4614460BB33AB999B90468BD
:102EA00024B940F239110F4800F004FB2378D90708
:102EB00007D555B9E38893B104EBC3042378DA0747
:102EC000F8D4204638BD8469EAE7012D07D1A388EC
:102ED0002BB1A4EBC3042378DB07F8D4F1E700247B
:102EE000EFE700BF06650008F8B50D4617461C461B
:102EF000064618B111B1042A00D823B940F28F1147
:102F00000E4800F0D7FA00213046C4E90065C4E954
:102F10000211C4E9056621612777616200F02CFC8B
:102F20002369013DED08013375802361A3680846DC
:102F30000833A360E3680833E360F8BD0665000862
:102F400000487047840B002008B500F079FA034B65
:102F50001868BDE8084002F0F3BD00BFAC0B0020CC
:102F600030B5094D8BB001AC0FCD0FC40FCD0FC4E0
:102F70002B68002101AA0548236002F08EFD044B56
:102F800018600BB030BD00BF7C650008492F0008F9
:102F9000AC0B002070B502F0C7FC144E0546347827
:102FA000FCB9134B1C60134B1C60134B1C6000F0EE
:102FB0002BF8012002F02CFD00F0B2FF0F4B02466F
:102FC000186020B9284602F0AAFC232070BD2346D1
:102FD00040F2E7310A4800F06DF80A4B186001230F
:102FE0003370284602F09BFC0020EFE762170020B8
:102FF000B80B0020B40B0020C00B0020BC0B00203D
:1030000018FCFFFFB00B002010B5002486B014227E
:10301000214601A88DF8004000F075FC01231348FB
:103020008DF8043002F08BFCBFF34F8F6846FFF73A
:1030300003FB204601A98DF80440FFF70FFB204653
:103040000F2100F0B9FD0F21204600F0C3FDFFF76E
:10305000D9FA00F087FD064B43209C61FFF7AEFCD8
:103060004320FFF779FC06B010BD00BF04640008E0
:1030700000800A5040F6B131014800F01BBA00BF91
:1030800006660008002307B50193084B1B6801334F
:1030900004D040F22131064800F00CFA02F0CEFED6
:1030A000019B002BFCD003B05DF804FB1818002036
:1030B0009F67000853B94AB9002908BF00281CBF00
:1030C0004FF0FF314FF0FF3000F082B9ADF1080C46
:1030D0006DE904CE00F006F8DDF804E0DDE9022336
:1030E00004B070472DE9F04F099D0C46002B4DD1DF
:1030F0008A420F4684469646B2FA82F360D94BB1B3
:1031000002FA03FEC3F120029F4000FA03FC20FAFA
:1031100002F217434FEA1E461FFA8EF44FEA1C4292
:10312000B7FBF6F106FB117701FB04F042EA074218
:10313000904208D91EEB020201F1FF3702D2904201
:1031400000F231813946121A1FFA8CFCB2FBF6F0FC
:1031500006FB102200FB04F44CEA024C644508D93B
:103160001EEB0C0C00F1FF3202D2644500F21E810E
:10317000104640EA0140ACEB040C002125B12CFACA
:1031800003F30022C5E90032BDE8F08F8B4205D978
:103190000DB1C5E9000100210846F5E7B3FA83F156
:1031A00000294DD1A342C0F0F380904280F0F0801E
:1031B000064623460846002DE6D0C5E90063E3E74E
:1031C000002B40F0A3808A1A4FEA1E471FFA8EF6A2
:1031D0000121B2FBF7F407FB14204FEA1C4242EA3C
:1031E000004206FB04F090420FD91EEB020204F1EC
:1031F000FF382CBF4FF001094FF00009904203D96E
:10320000B9F1000F00F0CC804446121A1FFA8CFC72
:10321000B2FBF7F007FB102200FB06F64CEA024C6B
:10322000664508D91EEB0C0C00F1FF3202D2664550
:1032300000F2B3801046ACEB060C40EA04409DE778
:10324000C1F120068B4004FA01FE22FA06F720FAAB
:1032500006FCF4408A401F434EEA0C0300FA01FECC
:103260004FEA17484FEA13491FFA87FCB4FBF8F0FE
:1032700008FB104449EA044400FB0CF9A1450ED9AF
:103280003C1900F1FF3A2CBF4FF0010B4FF0000B3F
:10329000A14503D9BBF1000F00F08B805046A4EB91
:1032A00009041FFA83F9B4FBF8F308FB134403FB8A
:1032B0000CFC49EA0444A44506D93C1903F1FF3843
:1032C00001D2A4457BD8434643EA0040A4EB0C045A
:1032D000A0FB02984445CC46434602D306D1CE45D6
:1032E00004D20138B9EB020C68EB0703002D6CD057
:1032F000BEEB0C0264EB030422FA01F304FA06F6B7
:10330000CC4000211E43C5E900643DE702FA03FEFC
:10331000C3F1200104FA03F200FA03FCCC404FEAA7
:103320001E4720FA01F11FFA8EF6B4FBF7F00A43AC
:1033300007FB1044110C41EA044100FB06F48C42E7
:103340000ED91EEB010100F1FF382CBF4FF001092F
:103350004FF000098C4202D9B9F1000F2CD0404641
:10336000091B92B2B1FBF7F407FB141142EA0142C8
:1033700004FB06F1914207D91EEB020204F1FF386B
:1033800001D291421ED84446521A44EA004120E735
:10339000861A64EB030301200DE7F44402384AE780
:1033A000023C724431E702397244CCE6F4440238FC
:1033B000DFE602383C4472E702387144D0E7023B52
:1033C0003C4481E7023C7244DEE72946DCE600BF6C
:1033D000704700BF08B5064B044613B10021AFF398
:1033E0000080044B1B6803B19847204600F063F847
:1033F000000000005817002070B50D4D00260D4C40
:10340000641BA410A64209D10B4D00260B4C02F000
:1034100047FD641BA410A64205D170BD55F8043BBE
:1034200001369847EEE755F8043B01369847F2E736
:103430003C1800203C1800203C18002040180020B8
:1034400008B500F027FAFCF719FF00F05AFA00B9A6
:1034500008BD00F01EFAF8E77047704770477047E4
:10346000704708B5FCF7FEFF00F02EF9BDE80840F4
:10347000FCF7EEBF704700F0C7BD08B5FDF7FAF8DE
:10348000FCF7CAFFBDE80840FCF7D4BF00F002B863
:10349000704770470F207047FEE700239A4200D123
:1034A000704710B550F8234041F8234001339A4249
:1034B000F8D110BDFEE7FEE7436803B118472220AC
:1034C0007047436903B11847FF207047704737B50D
:1034D0000D680C46AB88ADF804302B78022B0CD06D
:1034E0000DF1030101A8FDF7ADF99DF80330204669
:1034F00083F001032B70FFF7E9FF03B030BD0368D1
:103500001878704713B50468A388ADF804302378A1
:10351000022B15D00DF1030101A8FDF793F9A27953
:103520009DF80330012A13D1618843EA41034FF625
:10353000E07163F03F039BB28B4203D12270638042
:1035400002B010BD4FF6DF729342F8D10022F5E7CA
:10355000002AF5D183F001032370F1E703681A789C
:10356000022A03D100225A80FDF70EB8704710B529
:1035700004682378022B07D0A379022B02D160794B
:10358000FDF702FA0223237010BDD0E900031847AB
:10359000836800681847C368006818474369006873
:1035A000184707B503788DF8043043788DF8053057
:1035B000837801A823B9FDF7E5F803B05DF804FBB3
:1035C000FDF7B4F8F9E707B503788DF804304378D0
:1035D0008DF80530837801A823B9FDF7A7F803B06B
:1035E0005DF804FBFDF7CEF8F9E707B503788DF831
:1035F0000430437801A88DF8053000F031FA03B0AB
:103600005DF804FB13B5044603780DF103018DF852
:103610000430437801A88DF80530FDF7E1F8A37870
:103620009DF803000BB980F0010002B010BD70B529
:10363000054614460E4602F06EF92B685C40344095
:103640005C402C60BDE8704002F060B908B500F045
:10365000A7F9BDE808400021FDF7AEBD0029CCBFA9
:1036600001210021FDF7A8BD02214FF42070FEF7D3
:10367000C9B97047704770B5054614460E4602F04A
:103680004AF92B685C4034405C402C60BDE87040D7
:1036900002F03CB921FA00F2D20730B5034600F03F
:1036A000FC040FD500220132D2B2042A02D14FF01D
:1036B000FF3008E0831803F00303234421FA03F5E5
:1036C000ED07F0D4184630BD00F000B80020704778
:1036D000FEF7E6BFF8B50C468D1807355242154087
:1036E000A5F108070646384600F046F8A188381BC1
:1036F000628801EBE00189B2A2EBE00225F8041C2C
:1037000025F8062CA288C310AAB1A4EBC202B2F815
:1037100002C0D18003EB0C015180E28892B1D31A30
:103720009BB204EBC20425F8023CA380B3680344B7
:10373000B3603846F8BD15F8082C42F0020205F8CF
:10374000082CEAE725F8022CF0E707B500224FF035
:10375000FF3101AB0192FFF795FA019803B05DF8D4
:1037600004FB10B50446FFF7EBFB2146BDE8104013
:10377000FFF796BAFFF7F5BF002303604360704779
:10378000F0B5D0E90540551C08BF0822002B4FF0CA
:10379000000518BF0446DDF818C0CCF80050002C16
:1037A00037D09DF814706588FF0007EBC505C2F19E
:1037B000000E2078C00708D51BBBE088A0B104EB41
:1037C000C004658807EBC505F3E78D42F4D363B900
:1037D00004F10806B6FBF2F002FB106670180EB199
:1037E000A842EAD8CCF80040F0BD082A0FD0608883
:1037F000013004EBC000461A06EA0E06801B854223
:10380000F0D2A0880028EFD0A4EBC004D9E7084686
:10381000E8E72046E8E72DE9F041D0E9054507460D
:1038200088461646F3B194420FD042B1954215D165
:10383000424601213846FFF72BFB05460EE00A46BB
:103840003146FFF725FB0446F2E70A460021FFF761
:103850001FFBB5420446EBD0002EE9D0C7E9054571
:10386000BDE8F081944208D08C4228BF0C46B54296
:1038700005D0454538BF4546F0E70C46F7E74546D5
:10388000ECE708B500F013F800F039F8FEE77047F0
:103890007047704708B5FFF7E4FDFFF7EEFDFFF74F
:1038A000F5FDFFF7F5FDBDE80840FFF7F2BD08B5EF
:1038B000FFF7D6F8FFF7EBFFFFF7B8F8FFF724F8AC
:1038C000FFF706FFFFF736F8FFF764FBFFF7E0FFAF
:1038D00000F084FB00F007F8FFF7CCFDBDE80840DE
:1038E000FFF73EBB704708B5FFF7B7FDFFF7B6FD22
:1038F000FFF7B5FDFFF7B4FDFFF7F4FF08BDFFF7D5
:10390000BABD0020704702440346934200D170477D
:1039100003F8011BF9E70A44431E914200D17047A6
:1039200010B511F8014B914203F8014FF9D110BDC8
:10393000014B1868704700BF081800200A4B1B6F26
:1039400003F00703013B032B03D8DFE803F00A036E
:103950000608FEE7054B18687047054BFBE705486E
:1039600070470548704700BF0080005008180020CD
:103970001018002080D54302002D310108B5FFF753
:10398000DDFF054B1B6FC3F303330133B0FBF3F0D3
:10399000024B186008BD00BF0080005004180020D2
:1039A0000048704700B4C40400487047002D31013E
:1039B000014B1868704700BF10180020004870477E
:1039C00080D543024FF40022184B5A664FF0B4439F
:1039D0009868C0F304400C280AD8DFE800F00B090F
:1039E00009090909072119091B1D1F001048704703
:1039F000002070479B6803F04073B3F1807F11D0C3
:103A0000B3F1007F10D00B4A002B08BF104670475F
:103A10000948704709487047094870470948704786
:103A2000094870470948704709487047009000509E
:103A3000405DC60000093D00C0EA210180BA8C014A
:103A40000048E801005A62020024F40080841E004D
:103A500040420F00014B1868704700BF0C1800204F
:103A600038B5044630B914484FF48A71FFF722FD87
:103A7000222038BD03788BB1012B03D0022B0DD04F
:103A8000032B04D13F236278D340DB0709D40A48D3
:103A90004FF48C71FFF70EFD2120EAE740F2FF336F
:103AA000F1E701F041FF0546204600F031F82846D5
:103AB00001F035FF0020DCE7B05F000810B50446D8
:103AC00020B94FF4D8711048FFF7F4FC2378C3B144
:103AD000012B03D0022B14D0032B04D13F23627897
:103AE000D340DB0704D440F2B3110748FFF7E2FCF0
:103AF0000122637821789A4030235943034B5A506E
:103B000010BD40F2FF33EAE7AD60000840D003503B
:103B100010B5044620B940F29D211048FFF7CAFCB9
:103B20002378C3B1012B03D0022B14D0032B04D173
:103B30003F236278D340DB0704D44FF42871074851
:103B4000FFF7B8FC0122637821789A40302359436B
:103B5000034B5A5010BD40F2FF33EAE7AD60000856
:103B600040F00350034B5A68D20702D5DA69002AA5
:103B7000F9D1704700800A5038B9064B5A68D2070D
:103B800002D59A6D002AF9D170478C210248FFF7BF
:103B900091BC00BF00800A502162000810B9044B9C
:103BA0005964704740F2C7110248FFF783BC00BF59
:103BB00000900A502162000810B9044B5964704704
:103BC00040F203210248FFF775BC00BF00A00A5075
:103BD0002162000810B9044B1964704740F23F217C
:103BE0000248FFF767BC00BF00A00A50216200082E
:103BF00008B510B9044B186C08BD044840F27A218E
:103C0000FFF758FC0020F7E700800A502162000807
:103C100038B504460D46FFF7AFFF14B91DB1012DAD
:103C200004D0002001E0034BD86C38BD014B186D67
:103C3000FBE700BF00800A5070B506460D461446EB
:103C4000FFF79AFF16B915B1012D03D070BD034BD4
:103C5000DC64FBE7014B1C65F8E700BF00800A50FD
:103C600070B50D46E8B1036813F4E07F03F03F063A
:103C7000C3F3821210D0012A13D10B4C9B0603D53B
:103C800091210A48FFF716FC45B104F58054012341
:103C90000020B340236070BD054CEFE704F50054ED
:103CA000F5E70E20F7E700BF688000507F6200084C
:103CB0006480005030B50E4C416123688BB92060A0
:103CC00083600DE0891A9A681D4641616AB1134606
:103CD0005A698A42F6D935B1A860521A83605A618E
:103CE00030BD0025F4E72060F7E798608260F7E7D1
:103CF000B80B00200D490B68A0B10022A3B183428C
:103D000003D1836822B90B6003E01A469B68F5E78C
:103D1000936083680BB9002070475A6941690A446F
:103D20005A61F8E72220704702207047B80B002044
:103D300038B500F0EDF80025084B094C1A682368E7
:103D4000C31A2AB123B15169994203D3C91A5161E7
:103D5000206038BD55615B1A9268F2E7B80B00200D
:103D6000B40B002038B5154D2B682BB35B69A3B19C
:103D7000134A022014681C4401F04AFE204600F059
:103D8000DBF800230F492A680B7022B1D088800726
:103D90000AD501230B70002038BD022001F038FE47
:103DA000022000F013F9ECE79268002AF3D0506982
:103DB0000344012BEAD9EEE72220EDE7B80B0020FF
:103DC000B40B002061170020C2072DE9F843044618
:103DD00007D54B4A136801331360FFF7A9FFFFF7BC
:103DE000C1FFA30740F18A8001F09EFD4FF000085B
:103DF00005464646FFF79CFF424F3C680CB163699D
:103E0000A3B10022404B012E1A7003D118F0020F0B
:103E100018BF1E70FFF7A6FF222802D1022000F073
:103E2000C3F82846BDE8F84301F079BD23465A6936
:103E30003AB91A792179914288BF1C469B68002BB8
:103E4000F5D1284601F06BFD2569DDB100F060F881
:103E5000A269A0EB02084FEAE873A84573F10003DA
:103E600011DB23691344A361E36813B12046216881
:103E70009847B4F8068001F057FD01360546FFF774
:103E800057FFBAE7A84601F04FFD81462046FFF7ED
:103E900031FF484601F043FD2369002BE4D0B5EB28
:103EA00008054FEAE87363EB4303012D73F1000348
:103EB00004DA40F247611548FFF7FCFAA38B33B1EF
:103EC000E28B13449BB2B3F57A7F0FD2E38301F008
:103ED0002BFD804629462046FFF7ECFEA3692269A8
:103EE00040461344A36101F01AFDBDE7A3F57A73C0
:103EF000E383A369013D013BA361E8E7BDE8F883E3
:103F0000C00B0020B80B002060170020A06500083F
:103F100008B5FFF727FE014B986908BD00800A50DD
:103F200007B5044B01A9187901F004FD019803B00D
:103F30005DF804FB10640008F8B5044601F0EBFCE2
:103F40000746FFF70FFE154B9D6901F05DFD064624
:103F50000020FFF74DFE830704D4731B032B01D809
:103F6000AE420FD10021631B022B98BFEC1C084608
:103F7000B4F1FF3F2CBF2246621EFFF75DFE022018
:103F800001F046FD384601F0C1FC054B1A7822B11C
:103F90000121044A916400221A70F8BD00800A5081
:103FA0003818002000900A50830700F0010106D560
:103FB0000123044A41F002011370034A9364002074
:103FC000FFF7FABD3818002000A00A50830742BF4F
:103FD0000222014B1A64704700900A5008B501F0A4
:103FE0003AFD48B900F0F2FF0128034607D1054A1F
:103FF000106820B9136008BD6FF00500FBE74FF0B3
:10400000FF30F8E77411002010B501F024FD0446DC
:1040100068B900F0DBFF01280CD1084B1A68012AAF
:1040200008D102221A6000F0EFFC204610BD6FF0AC
:104030000500FBE74FF0FF30F8E700BF74110020E8
:10404000034B0360034B0B60A0231360704700BF5A
:104050001C1100209C0E0020034B0360034B0B60DF
:10406000A0231360704700BF440E0020C40B002043
:10407000F0B585B00E461D460446019220B940F2C7
:1040800073314948FFF716FA36B9236C23B14FF460
:104090005D714548FFF70EFA022D07D1E36B012B46
:1040A00004D040F275314048FFF704FA00F08EFF6B
:1040B00030B9019B23B14FF45E713B48FFF7FAF929
:1040C00001F07CFBA26BE36B9A421FD22A46314679
:1040D000204601F0D1FD636A1BB104F1240000F019
:1040E000B9FE08B101F08DFE01F076FB012005B0AC
:1040F000F0BD01F063FBA26BE36B9A42E6D30123B0
:10410000019A42B901F068FB0020F0E7022DDDD0F2
:1041100000231F46F4E713B902A801F04DF801F09F
:104120005BFB00F0BFFC01F049FB94F84430FF2B2F
:1041300008BF84F8447094F84530FF2B08BF84F81A
:10414000457001F049FB01A902A801F041F820BB2C
:1041500001F034FBA26BE36B9A4210D101F03CFBFF
:10416000019904F1100000F02DFE204601F041FD00
:1041700000F064FD0028BCD101F043FE06E001F030
:104180002BFB204601F035FD00F058FD01F016FB39
:10419000A36BE26B9A42B2D998E7204601F029FD61
:1041A00000F04CFDB0E700BF6F660008F0B585B0C9
:1041B0000E460446019220B940F23A513C48FFF7BE
:1041C00079F936B9236C23B140F23E513848FFF7F4
:1041D00071F900F0FBFE30B9019B23B140F243516D
:1041E0003348FFF767F901F0E9FAA56B9DB1314655
:1041F000204601F074FD2369013DA56333B104F14C
:10420000100000F027FE08B101F0FBFD01F0E4FA18
:10421000012005B0F0BD019BABB302A800F0CCFFBC
:104220002F4601F0D9FA00F03DFC01F0C7FA94F8EE
:104230004430FF2B08BF84F8447094F84530FF2BBE
:1042400008BF84F8457001F0C7FA01A902A800F080
:10425000BFFF10BB204601F004FDC0B1019904F17D
:10426000240000F0AFFD204601F0C3FC00F0E6FCA6
:1042700008B901F0C6FD01F0A1FAA56B002DB6D179
:10428000019B002BCDD101F0A7FA0020C1E7204609
:1042900001F0AFFC00F0D2FCEDE7204601F0A9FCF4
:1042A00000F0CCFC204601F0DCFC0028E3D0ECE779
:1042B0006F660008F0B585B00446019120B94FF44F
:1042C000B7614748FFF7F6F8236C23B140F2BC51C1
:1042D0004348FFF7EFF800F079FE30B9019B23B1B6
:1042E00040F2C1513E48FFF7E5F800252E462F4623
:1042F00001F064FAA36BA3B1013BA363236813B974
:1043000000F050FFA060236933B104F1100000F009
:10431000A1FD08B101F075FD01F05EFA012005B0C4
:10432000F0BD019B1BB901F057FA0020F7E716B961
:1043300002A800F041FF01F04FFA00F0B3FB01F0DA
:104340003DFA94F84430FF2B08BF84F8447094F889
:104350004530FF2B08BF84F8457001F03DFA01A9F4
:1043600002A800F035FF10BB204601F07AFCC0B176
:1043700023683BB901F022FAA06800F037FE054639
:1043800001F02AFA019904F1240000F01BFD2046F7
:1043900001F02FFC00F052FC08B901F032FD0126BB
:1043A000A6E7204601F025FC00F048FCF7E7204690
:1043B00001F01FFC00F042FC204601F052FC0028F6
:1043C000EDD0002DB1D001F0F9F9616A19B1236B7C
:1043D0001968C1F13801A06800F094FEA3E700BF9E
:1043E0006F66000870B50D46044620B940F63221CC
:1043F0000E48FFF75FF8BDB100230D4A194610467D
:104400005668A64204D100EBC103C3E900540BE097
:104410001BB91668002E08BF134601310A2902F1A4
:104420000802EDD1002BF0D170BD00BF6F6600080F
:104430007811002070B50E46044640B1C56B65B9D1
:104440001D4840F25B11FFF735F8002029E04FF4DA
:1044500099711948FFF72EF8F2E7036CA3FB0535B5
:10446000002DEDD101F0AAF9D4E90F314B432268B8
:10447000A563D0185B1A62601A44FF23A06084F819
:104480004430E26084F8453066B9236933B104F101
:10449000100000F0DFFC08B101F0B3FC01F09CF962
:1044A000012070BD04F1100001F064FB04F1240050
:1044B00001F060FBF2E700BF6F660008F7B5074642
:1044C0000D4616461C463BB160B91E484FF4CE71EE
:1044D000FEF7F0FF002026E040F273111948FEF7C6
:1044E000E9FFF2E742B10029EFD050230193019B8D
:1044F000502B20D1019B08E00029E6D150230193E5
:10450000019B502B11D12646019B01212046C4E975
:104510000F7584F846102660FFF78CFF20469DF843
:10452000203084F84C3003B0F0BD4FF4C271054820
:10453000FEF7C0FFE7E74FF4C2710248FEF7BAFF8B
:10454000D8E700BF6F66000800222DE9F843064651
:104550001E4B1F4C1D681F4B0F46D3F800801E4B8F
:10456000D3F800902368206883F85620043001F0C7
:1045700031FB731C14D19FB1184B21685A688A60B3
:1045800090682168C8602168043141602168043165
:104590009160226853611A6801321A60BDE8F8839D
:1045A00023682168AD195D6001F1040104D3484618
:1045B000BDE8F84301F0ECBA404601F0E9FA084BD7
:1045C0001A68AA4288BF1D60E8E700BFEC1100200E
:1045D000C41600203812002034120020F4110020EC
:1045E000D0110020064A13681968064B19B94FF01C
:1045F000FF321A6070471268D2681268F9E700BF8C
:1046000038120020D011002010B590F85530044623
:104610003BB9006B01F030FC2046BDE8104001F0D2
:104620002BBC012BF9D0022B06D0BDE8104041F283
:1046300016710248FEF73EBF10BD00BFCE660008EF
:10464000F8B50C4C0C4F0D4D236803B9F8BD01F0C3
:10465000B5F8FB68DE68301D01F0BCFA2B68013B41
:104660002B602368013B236001F0B6F83046FFF76A
:10467000CBFFE9E7081200200C120020F011002007
:104680002DE9F041044601F099F8304B304E1A689C
:10469000304F01321A603568002D4AD134601B68F2
:1046A000012B1FD1B8464046013501F063FA382D81
:1046B00008F11408F7D1DFF8C480274D404601F017
:1046C00059FA284601F056FA244801F053FA2448D2
:1046D00001F050FA234801F04DFA234BC3F8008053
:1046E000224B1D60224A201D136801331360214AAA
:1046F00023641168E36A8B4288BF1360142253431A
:10470000F9184A689568A260E56068609060FA5898
:1047100061610132FA5001F05FF8174B1B689BB1E1
:104720003368DA6AE36A9A420ED2BDE8F04101F0DA
:1047300068BB114B1A68E36A002AD3D13268D26A87
:104740009A4298BF3460CDE7BDE8F081F0110020B7
:10475000C4160020641200203C1200202012002009
:104760000C120020F4110020381200203412002016
:10477000D4110020E8110020E41100205012002084
:1047800008B5044CFFF75CFF2368012BFAD901F050
:1047900038FBF7E7641200202DE9F0470E46DDE90B
:1047A000085A0A9C97003A468046A521206B9946F4
:1047B000FFF7A9F8236B043F1F4427F007076EB1EA
:1047C000731E04F13302093613F8011F02F8011FAA
:1047D00009B1B342F8D1002384F83D30372D05D913
:1047E00040F2FB610F48FEF765FE3725E562A564E0
:1047F000201D01F0CAF9C5F1380504F1180001F0D7
:10480000C4F94B4642463846216B2461A561646277
:1048100000F008FF2060BAF1000F01D0CAF8004094
:10482000BDE8F087CE6600082DE9F04398460023E6
:1048300087B00546DDE90F940E4617460493B9F19B
:10484000000F22D074B358230593059B582B2FD10A
:10485000582200212046059BFFF755F8022384F8D3
:10486000553004ABC4F8309001930E9B284600935A
:104870003A46434631460294FFF78EFF2046FFF743
:10488000FFFE049807B0BDE8F08340F2BE410E4839
:10489000FEF710FE34B158230593059B582B0DD11C
:1048A000059BEEE740F2BF410748FEF703FEF2E743
:1048B00040F2C7410448FEF7FDFDC9E740F2C74199
:1048C0000148FEF7F7FDEBE7CE660008F8B50446B1
:1048D000204D00F073FF04B92C68271D384601F005
:1048E00079F9A36A1BB104F1180001F073F91A4AAF
:1048F0001A4E1368013313602B68A342336800D14A
:104900005BB9174A1368013B1360FFF76BFE00F0B9
:1049100063FF2046FFF778FE09E03946114801F0B1
:104920004EF9114A13680133136000F055FF3368E4
:1049300073B12B68A3420BD10C4B1B6823B140F61B
:1049400079010B48FEF7B6FDBDE8F84001F059BA11
:10495000F8BD00BFC4160020D4110020E4110020CF
:10496000F01100200C12002008120020C8110020B5
:10497000CE6600082DE9F041044620B940F60E113C
:104980001A48FEF797FD1A4B1B68A34226D000F089
:1049900015FF184BD4F828801F68174B65691E68EF
:1049A00000F01AFF154B98451AD0BD421AD0B542F7
:1049B00018D0134B9D4209D1A36A9BB994F8543087
:1049C000012B14BF03200220BDE8F0810D4B9D4256
:1049D0000AD0002D14BF01200420F5E70020F3E7E2
:1049E0000120F1E70220EFE70420EDE7CE660008A2
:1049F000C41600203812002034120020201200209B
:104A0000F41100200C12002030B58BB007AB1D460E
:104A10001C4A12F8014B03F8014B002CF9D106AAED
:104A200005A904A8CDE90444FFF70AFB049B294625
:104A30000293059B069ACDE9004313482346FFF7EE
:104A4000F3FE124B186080B100F08CFD0128054682
:104A50000FD101F0F3F94FF0FF320D4B1A600D4BFF
:104A60001D600D4B1C6000F029FE0C4B1B680BB049
:104A700030BD0135F9D140F66B510948FEF71AFDFA
:104A8000F3E700BF2D67000881470008CC11002024
:104A9000D0110020E4110020EC1100201418002097
:104AA000CE660008024A136801331360704700BFE6
:104AB000C8110020014B1868704700BFEC1100209E
:104AC0002DE9F84F514B1B68002B40F09980504B5B
:104AD0001C6801341C609CB94E4D2B681B6823B1C7
:104AE00041F2D3014C48FEF7E5FC4C4B2A681968AB
:104AF00029601A604A4A136801331360FFF772FD98
:104B0000484D00202B68484AA342DFF828B10FD94E
:104B10001421DBF80030DB6A4B43D358022B434BA4
:104B200028BF01201B68002B18BF0120BDE8F88FAB
:104B30000746DFF804C1374B1B681B681BB94FF0F1
:104B4000FF332B60E4E7334B1B68DB68DB68596895
:104B50008C4201D22960DBE7D3F81480D3E9021933
:104B6000C1F80890C9F80410D8F8041003F1040E35
:104B70007145D8F8001008BFC8F8049001395F618A
:104B8000C8F80010D3F82880B8F1000F13D0D3E98B
:104B90000719C1F80890C9F80410D8F8041003F1F7
:104BA000180A5145D8F8001008BFC8F80490013918
:104BB0009F62C8F800101426D96ADCF800804145CD
:104BC00006FB01F802EB080ADAF8049088BFCCF87B
:104BD0000010D9F80860C3F80890DE60C6F804E059
:104BE000C9F808E0C3F814A052F80830013342F8BD
:104BF0000830DBF80030DB6A994288BF01209AE771
:104C00000B4A00201368013313608FE7C81100209E
:104C1000EC11002038120020CE660008341200206B
:104C2000D8110020D011002064120020DC110020D7
:104C3000E0110020C4160020E81100202DE9F84FF3
:104C4000474C00F0BBFD236823B940F63D61454861
:104C5000FEF730FC2368013B236023682BB100245E
:104C600000F0BAFD2046BDE8F88F3F4A1268002ADE
:104C7000F5D014254FF0010C3C483D4C3D4A3E4ECA
:104C80003E4F51E0C368DB68D3F828E0D3E907184A
:104C9000C1F80880C8F80410DEF8041003F1180900
:104CA00049454FF0000108BFCEF804809962DEF854
:104CB00000100139CEF80010D3F814E0D3E902183F
:104CC000C1F80880C8F80410DEF8041003F10409E4
:104CD0004945DEF8001008BFCEF804800139CEF84F
:104CE0000010D3F82CE0216805FB0EF802EB080A4F
:104CF0008E45DAF8041088BFC4F800E0D1F808B097
:104D00009960C3F80CB0CBF80490C1F8089052F841
:104D10000810C3F814A0013142F808103168C96ABC
:104D20008E4501D9C7F800C001680029AAD10BB18E
:104D3000FFF758FC124D2C6844B101270F4EFFF7C6
:104D4000BFFE00B13760013CF9D12C600B4B1B68F2
:104D5000002B84D0084B01241B6801F052F87FE738
:104D6000C8110020CE660008F0110020201200209B
:104D7000E811002064120020C4160020DC1100207D
:104D8000E011002010B5044618B9BDE8104001F04C
:104D900038B8FFF787FE094B1B68012B04D040F69B
:104DA000E1010748FEF786FB00212046FFF7CCFB18
:104DB000FFF744FF0028E8D010BD00BFC811002055
:104DC000CE66000838B50D46044620B941F2B92137
:104DD0000748FEF76FFB074B20461968183100F0B3
:104DE000D7FE2846BDE838400121FFF7ADBB00BF24
:104DF000CE660008C416002070B50E46154604465F
:104E000020B941F2F7211148FEF754FB104B6268BC
:104E100019689068CA611968002D0862196801F163
:104E20001801416019681B6801F1180191609C62CA
:104E30002368294603F1010308BF3046236018BFE9
:104E40004FF0FF30BDE87040FFF77EBBCE66000834
:104E5000C4160020F8B5C368DC6824B941F22C31CF
:104E60002648FEF727FBD4E90712A36A8A6051603F
:104E7000596804F11800814208BF5A600022A262FA
:104E80001A68013A1A601E4BE26A1B68002B29D18E
:104E9000D4E902016369816048605868251DA84211
:104EA00008BF5960196801391960164B19688A42A0
:104EB00088BF1A60142353431349CE18706887685B
:104EC000A060E7607D608560C85866610130C850A9
:104ED0000E4B1B68DB6A9A4285BF01200C4B0020F9
:104EE0001860F8BD0B4B59688D68E16125626860F8
:104EF00088601968A36201311960E9E7CE6600088D
:104F0000C8110020E811002064120020C4160020FF
:104F1000DC11002020120020234B2DE9F0411A68FB
:104F2000224B1AB101221A60BDE8F081204E1A60AE
:104F300033681B6B1A68B2F1A53F0BD15A68B2F106
:104F4000A53F07D19A68B2F1A53F03D1DB68B3F161
:104F5000A53F04D0316830683431FEF78BF8154F27
:104F6000154D3C68DFF8548014236343E9585A19FF
:104F700091B15168083349682B44994208BFD368FE
:104F8000516008BF5360142303FB04556B68DB6852
:104F900033603C603368C7E724B941F239214046A9
:104FA000FEF788FA013CDFE7C8110020DC11002081
:104FB000C4160020E811002064120020CE6600080C
:104FC0000122014B1A607047DC110020054B1B6861
:104FD00033B1054B1868B0FA80F0400940007047C3
:104FE00001207047E4110020C8110020F8B50446E4
:104FF00000282ED01D4DC36A2A68D26A93422DD252
:1050000082691B4E002AA1BF2A68D26AC2F1380207
:105010008261142202FB036342699A421AD1071D7E
:10502000384600F0D7FD2B68124ADB6A1168E3624C
:105030008B4288BF136014225343F1184A6890686A
:10504000A260E06047609760F25861610132F250FF
:105050000120F8BD2B68DB6AC362F9E72B68806C1E
:10506000DB6A98422CBF00200120F2E7C416002022
:1050700064120020E811002070B5044608B9002031
:1050800070BD1C4B1B68834204D041F2F2711A4878
:10509000FEF710FAE36C23B941F2F3711648FEF7FC
:1050A00009FAE36CE16AA26C013B9142E364E6D049
:1050B000002BE4D1251D284600F08CFDA36CC3F124
:1050C0003802A2610D4AE36211688B424FF014016D
:1050D00088BF13604B430A4AD01841688E68A160AC
:1050E000E66075608D60D158606101310120D1505A
:1050F000C6E700BFC4160020CE660008E8110020F5
:105100006412002070B50D460446002840D0C36CE0
:1051100023B941F643011F48FEF7CCF9A36C9D4229
:1051200038BF1D46E36AAB4232D0E36C012B2FD16E
:10513000194B1B68A34204D141F659011548FEF7EB
:10514000B9F9A269E36A002A4FF01402E562A4BF2C
:10515000C5F13805A561114D02FB035362699A42FE
:1051600016D1261D304600F035FD0D4AE36A116860
:105170008B4288BF136014225343E9184A68906831
:10518000A260E06046609660EA5861610132EA50D0
:1051900070BD00BFCE660008C41600206412002057
:1051A000E8110020034B186810B1C36C0133C364CD
:1051B000704700BFC4160020034B1B680360034BFD
:1051C0001B684360704700BFD8110020EC1100201D
:1051D00070B50D46044620B941F2D4311948FEF7A6
:1051E00069F925B941F2D5311648FEF763F900F0A7
:1051F000E5FA154B62681968144B186890F8560068
:1052000040B100221B6883F85620012400F0E4FA24
:10521000204670BD2B68581C12D00D4826680068C7
:10522000864204D08A4202D800232B60EDE7881A18
:105230008342F9D95B1A134420462B60FFF7BCFF69
:105240000024E3E7CE660008EC110020C41600201D
:10525000D8110020914208B5416000610AD8D21AE5
:1052600083699A420DD2084B011D186800F090FC2A
:10527000002008BD9A4201D2994202D2034B011D7F
:10528000F3E70120F5E700BF2417002028170020CE
:105290000E4B70B51B680546DB680E46DC68201DAA
:1052A00000F098FC94F828305A0709D53246294670
:1052B000204600F093FD2046236ABDE87040184761
:1052C00023F0010384F82830F5E700BF28170020F9
:1052D000F8B50546FFF7EEFB0D4E044633688342F2
:1052E00009D90C4F3B681A6852B90B4A1168136010
:1052F0003960012300E0002320462B603460F8BDB4
:10530000DB684FF0FF311868FFF7C2FFEAE700BF24
:10531000C81600202817002024170020F7B5114CCC
:1053200000F04CFA2568BDB90F4F104E384600F01A
:1053300021FC304600F01EFC0D4B10211F600D4B70
:105340000A201E600C4A0D4B0095FFF7B7F820604D
:1053500010B10B49FFF746F803B0BDE8F04000F08C
:105360003BBA00BF20170020401700202C17002058
:10537000281700202417002063170020CC160020D7
:10538000326700082DE9F041554F564E86B03B6814
:10539000D3F80080B8F1000F37D00024DB68D3F8D1
:1053A0000080FFF77FFB02A8FFF792FF029B0546F4
:1053B000002B3FD15CBB40452FD3FFF73FFC294674
:1053C0004046FFF765FF1022002102A8FEF79BFA76
:1053D0000022306802A9FEF7E9FE0028D7D0029B20
:1053E0000498002B29DB049C63696BBB01A8FFF7C1
:1053F0006FFF029B0546013B082BE9D8DFE803F06D
:1054000028284B526828284B52000124C9E7364B04
:105410001B681C68B4FA84F4640922463068A8EB5F
:10542000050100F07CFCFFF709FC0028CBD100F05F
:10543000E8FCC8E7FFF702FCC5E7039B059998471E
:10544000029B002BC4DBCEE7201D00F0C3FBCDE7A1
:1054500094F82830A16943F0010384F82830039BB5
:10546000024619442046FFF7F5FE0028B0D094F814
:10547000283059070AD5A36903992A4620461944BA
:1054800000F0ACFC2046236A9847A1E723F0010313
:1054900084F82830F6E794F8283023F0010384F8E4
:1054A000283095E794F8283043F0010384F8283039
:1054B000039BA36123B940F2C1310C48FDF7FAFF09
:1054C000A1692B462A4620462944FFF7C3FE7FE701
:1054D00094F828309A07E0D4204600F0CDFC77E716
:1054E0002817002020170020241700203767000805
:1054F0002DE9F3411F462C230193019B80462C2B61
:105500000D461646099C04D040F277111448FDF769
:10551000D1FF019BF4B1022384F8283025B94FF460
:10552000CE710F48FDF7C6FFFFF7F8FE089BC4E9F0
:105530000657C4F800802362201D00F026FB2EB120
:1055400094F8283043F0040384F82830204602B051
:10555000BDE8F08140F27D110148FDF7ABFFF5E7B2
:105560003767000810B588B0FFF7D8FE114B1B68ED
:10557000CBB1002407AA06A905A8CDE90544FEF78A
:105580006BFD059B079A0293069B0B490193282309
:105590000A4800932346FFF747F9094B186010B1FA
:1055A000012008B010BD074840F23B11FDF782FF13
:1055B0000020F6E7201700209767000885530008B1
:1055C0001C17002037670008F0B50C461746054643
:1055D00085B020B940F2BF111048FDF76BFF104EA7
:1055E0003368A3B1052CCDE9004702950ADCFFF72B
:1055F000EDFC02280ED100230A9A69463068FEF7B6
:1056000037FD05E040F2C9110448FDF753FF0020C3
:1056100005B0F0BD00231A46EFE700BF376700086A
:105620002017002010B54FF0807440E90224184A7A
:105630004FF0123440F80C2C4FF003324FF0023C84
:1056400040E905244FF0013240F8203C40E9072CA6
:105650004FF010334FF011324FF0093440E90A3265
:105660004FF008334FF0073C40E90C344FF006335D
:105670004FF0053240E90E3C4FF0043340E9103260
:105680006FF0020340F8443C40F8481D10BD00BFD5
:10569000853000084FF0E0220423136100234FF40B
:1056A0007A719361044B1B68B3FBF1F3013B5361C7
:1056B00007231361704700BF041800204FF0E02358
:1056C00013B5D3F8084D374BE26A9A4204D04FF431
:1056D000C9613548FDF7EEFEA26B344B9A4204D007
:1056E00040F249613048FDF7E5FE00234FF07F426C
:1056F00001934FF0E023C3F81C2DD3F81C3D2C4A36
:105700001B0E8DF803309DF8033003F03003137047
:1057100023B940F267612448FDF7CCFE9DF80330C1
:10572000DB4313F0300F04D040F26B611E48FDF7ED
:10573000C1FE9DF8033013F0800F019B29D1082B87
:105740000CBF0023019B1B4A18BFC3F107031B02B8
:1057500003F4E06313604FF0E0230024D3F8202D1E
:1057600042F47F02C3F8202DD3F8202D42F07F426F
:10577000C3F8202DC3F81C4DFFF78CFF0E4B1C60A7
:1057800000F074F8FFF7C8FBFDF77CFC204602B080
:1057900010BD013301939DF803305B00DBB28DF83F
:1057A0000330C6E7E95800089F6700088D580008D5
:1057B00003180020541700201818002008B500F026
:1057C0003DFB044A136801331360BFF34F8FBFF3EF
:1057D0006F8F08BD1818002010B5094C236823B935
:1057E00040F2D6310748FDF765FE2368013B236090
:1057F000206818B9BDE8104000F02BBB10BD00BFF9
:10580000181800209F670008836913F8023C662B74
:105810000FD14FF0E023D3F8882D42F47002C3F883
:10582000882DD3F8342F42F04042C3F8342F00F0D3
:1058300007B840F26A410148FDF73CBE9F67000887
:10584000094A1168086806C881F30B88022181F3B0
:105850001488203080F30988BFF36F8F4FF0000069
:1058600080F3118810470000C41600200648006825
:10587000006880F3088862B661B6BFF34F8FBFF34C
:105880006F8F66DF00BF000008ED00E0EFF30980D6
:105890001EF0100F08BF20ED108AEFF30B82734645
:1058A00020E9FC0F0F4A116808604FF0300080F3C8
:1058B0001188BFF34F8FBFF36F8FFFF72DFB4FF0B2
:1058C000000080F31188074A11680868B0E8FC0FEF
:1058D00013F0100F08BFB0EC108A82F30B8880F32E
:1058E00009881847C41600201EF0040F0CBFEFF300
:1058F0000880EFF3098001490847000009580008B3
:105900004FF4004070474FF47A70704710B962B698
:10591000BFF36F8F7047EFF3108072B6704780F35C
:105920001188BFF36F8F7047EFF31180302383F33B
:105930001188704709B100F005B822207047012195
:10594000FEF78EB970B506460D46FFF7EDFF04462B
:10595000202E56D8DFE806F0111A551F22255528AB
:105960002B552E55313455373A3D554055435552F8
:10597000555555465549554C4F00FDF7DFFF00265C
:1059800028602046FFF7CBFF304670BD4FF4C07053
:10599000FBF73EFCF3E74FF42070F9E74FF440705B
:1059A000F6E74FF46070F3E74FF40070F0E74FF460
:1059B0008060EDE74FF44060EAE74FF4C060E7E74E
:1059C0004FF4F060E4E74FF4B060E1E74FF4D060EB
:1059D000DEE74FF41060DBE74FF4E060D8E74FF408
:1059E000A060D5E74FF42860D2E74FF48070CFE78E
:1059F0004FF42060CCE74FF44860C9E74FF40860EB
:105A0000C6E700202126BBE700210846FEF700B9C3
:105A100000F00101830748BF41F002010020FEF7BA
:105A2000BDB838B5FFF780FF04460020FEF7E0F868
:105A3000830700F0010548BF45F0020500F00301AF
:105A40000020FEF7C7F82846FEF7BEF92046BDE85D
:105A50003840FFF764BF10B5EFF3058414B101249B
:105A6000204610BDFFF7B2FA0128F9D0EFF31083FA
:105A7000002BF4D1EFF31184003C18BF0124EFE7B1
:105A800008B54FF0E0231B69FFF7A0FA012803D007
:105A9000BDE8084000F0C0B908BD00232DE9F04181
:105AA00086B005460E4690460593FFF7D4FF00BB2F
:105AB000FDB1B8F1000F3DD0D8F818402CB1631EED
:105AC000372B03D906B0BDE8F0811824D8F804308C
:105AD000DB0733D4D8F814306BB19A08D8F800102B
